{
  "contractName": "User",
  "abi": [
    {
      "inputs": [],
      "payable": false,
      "stateMutability": "nonpayable",
      "type": "constructor"
    },
    {
      "constant": true,
      "inputs": [
        {
          "name": "userAddress",
          "type": "address"
        }
      ],
      "name": "hasUser",
      "outputs": [
        {
          "name": "hasIndeed",
          "type": "bool"
        }
      ],
      "payable": false,
      "stateMutability": "view",
      "type": "function"
    },
    {
      "constant": true,
      "inputs": [
        {
          "name": "username",
          "type": "bytes16"
        }
      ],
      "name": "usernameTaken",
      "outputs": [
        {
          "name": "takenIndeed",
          "type": "bool"
        }
      ],
      "payable": false,
      "stateMutability": "view",
      "type": "function"
    },
    {
      "constant": false,
      "inputs": [
        {
          "name": "username",
          "type": "bytes16"
        },
        {
          "name": "ipfsHash",
          "type": "bytes"
        }
      ],
      "name": "createUser",
      "outputs": [
        {
          "name": "success",
          "type": "bool"
        }
      ],
      "payable": false,
      "stateMutability": "nonpayable",
      "type": "function"
    },
    {
      "constant": false,
      "inputs": [
        {
          "name": "ipfsHash",
          "type": "bytes"
        }
      ],
      "name": "updateUser",
      "outputs": [
        {
          "name": "success",
          "type": "bool"
        }
      ],
      "payable": false,
      "stateMutability": "nonpayable",
      "type": "function"
    },
    {
      "constant": true,
      "inputs": [],
      "name": "getUserCount",
      "outputs": [
        {
          "name": "count",
          "type": "uint256"
        }
      ],
      "payable": false,
      "stateMutability": "view",
      "type": "function"
    },
    {
      "constant": true,
      "inputs": [
        {
          "name": "index",
          "type": "uint256"
        }
      ],
      "name": "getUserByIndex",
      "outputs": [
        {
          "name": "userAddress",
          "type": "address"
        },
        {
          "name": "username",
          "type": "bytes16"
        },
        {
          "name": "ipfsHash",
          "type": "bytes"
        }
      ],
      "payable": false,
      "stateMutability": "view",
      "type": "function"
    },
    {
      "constant": true,
      "inputs": [
        {
          "name": "index",
          "type": "uint256"
        }
      ],
      "name": "getAddressByIndex",
      "outputs": [
        {
          "name": "userAddress",
          "type": "address"
        }
      ],
      "payable": false,
      "stateMutability": "view",
      "type": "function"
    },
    {
      "constant": true,
      "inputs": [
        {
          "name": "index",
          "type": "uint256"
        }
      ],
      "name": "getUsernameByIndex",
      "outputs": [
        {
          "name": "username",
          "type": "bytes16"
        }
      ],
      "payable": false,
      "stateMutability": "view",
      "type": "function"
    },
    {
      "constant": true,
      "inputs": [
        {
          "name": "index",
          "type": "uint256"
        }
      ],
      "name": "getIpfsHashByIndex",
      "outputs": [
        {
          "name": "ipfsHash",
          "type": "bytes"
        }
      ],
      "payable": false,
      "stateMutability": "view",
      "type": "function"
    },
    {
      "constant": true,
      "inputs": [
        {
          "name": "userAddress",
          "type": "address"
        }
      ],
      "name": "getUserByAddress",
      "outputs": [
        {
          "name": "index",
          "type": "uint256"
        },
        {
          "name": "username",
          "type": "bytes16"
        },
        {
          "name": "ipfsHash",
          "type": "bytes"
        }
      ],
      "payable": false,
      "stateMutability": "view",
      "type": "function"
    },
    {
      "constant": true,
      "inputs": [
        {
          "name": "userAddress",
          "type": "address"
        }
      ],
      "name": "getIndexByAddress",
      "outputs": [
        {
          "name": "index",
          "type": "uint256"
        }
      ],
      "payable": false,
      "stateMutability": "view",
      "type": "function"
    },
    {
      "constant": true,
      "inputs": [
        {
          "name": "userAddress",
          "type": "address"
        }
      ],
      "name": "getUsernameByAddress",
      "outputs": [
        {
          "name": "username",
          "type": "bytes16"
        }
      ],
      "payable": false,
      "stateMutability": "view",
      "type": "function"
    },
    {
      "constant": true,
      "inputs": [
        {
          "name": "userAddress",
          "type": "address"
        }
      ],
      "name": "getIpfsHashByAddress",
      "outputs": [
        {
          "name": "ipfsHash",
          "type": "bytes"
        }
      ],
      "payable": false,
      "stateMutability": "view",
      "type": "function"
    },
    {
      "constant": true,
      "inputs": [
        {
          "name": "username",
          "type": "bytes16"
        }
      ],
      "name": "getUserByUsername",
      "outputs": [
        {
          "name": "index",
          "type": "uint256"
        },
        {
          "name": "userAddress",
          "type": "address"
        },
        {
          "name": "ipfsHash",
          "type": "bytes"
        }
      ],
      "payable": false,
      "stateMutability": "view",
      "type": "function"
    },
    {
      "constant": true,
      "inputs": [
        {
          "name": "username",
          "type": "bytes16"
        }
      ],
      "name": "getIndexByUsername",
      "outputs": [
        {
          "name": "index",
          "type": "uint256"
        }
      ],
      "payable": false,
      "stateMutability": "view",
      "type": "function"
    },
    {
      "constant": true,
      "inputs": [
        {
          "name": "username",
          "type": "bytes16"
        }
      ],
      "name": "getAddressByUsername",
      "outputs": [
        {
          "name": "userAddress",
          "type": "address"
        }
      ],
      "payable": false,
      "stateMutability": "view",
      "type": "function"
    },
    {
      "constant": true,
      "inputs": [
        {
          "name": "username",
          "type": "bytes16"
        }
      ],
      "name": "getIpfsHashByUsername",
      "outputs": [
        {
          "name": "ipfsHash",
          "type": "bytes"
        }
      ],
      "payable": false,
      "stateMutability": "view",
      "type": "function"
    }
  ],
  "bytecode": "0x60806040523480156200001157600080fd5b5060023390806001815401808255809150509060018203906000526020600020016000909192909190916101000a81548173ffffffffffffffffffffffffffffffffffffffff021916908373ffffffffffffffffffffffffffffffffffffffff16021790555050600380600181540180825580915050906001820390600052602060002090600291828204019190066010027f73656c6600000000000000000000000000000000000000000000000000000000909190916101000a8154816fffffffffffffffffffffffffffffffff0219169083700100000000000000000000000000000000900402179055505060048060018154018082558091505090600182039060005260206000200160006040805190810160405280600d81526020017f6e6f742d617661696c61626c6500000000000000000000000000000000000000815250909190915090805190602001906200016f92919062000177565b505062000226565b828054600181600116156101000203166002900490600052602060002090601f016020900481019282601f10620001ba57805160ff1916838001178555620001eb565b82800160010185558215620001eb579182015b82811115620001ea578251825591602001919060010190620001cd565b5b509050620001fa9190620001fe565b5090565b6200022391905b808211156200021f57600081600090555060010162000205565b5090565b90565b611b0e80620002366000396000f3fe6080604052600436106100f1576000357c0100000000000000000000000000000000000000000000000000000000900463ffffffff168063026d1170146100f65780630ab7c933146101d65780630bac9fe71461029d57806316b7addf146103125780631973ef911461037857806329f78d88146103dd578063402f707e146104915780634fd3e6831461058e57806363db68db146105f057806369c212f61461067e5780638de094d51461077c578063a6c4ec0e1461087d578063a74380a6146108e6578063b5cb15f7146109b0578063ce10cf88146109db578063ed1a998d14610a56578063ff5d32fe14610ae1575b600080fd5b34801561010257600080fd5b506101bc6004803603602081101561011957600080fd5b810190808035906020019064010000000081111561013657600080fd5b82018360208201111561014857600080fd5b8035906020019184600183028401116401000000008311171561016a57600080fd5b91908080601f016020809104026020016040519081016040528093929190818152602001838380828437600081840152601f19601f820116905080830192505050505050509192919290505050610bf5565b604051808215151515815260200191505060405180910390f35b3480156101e257600080fd5b50610222600480360360208110156101f957600080fd5b8101908080356fffffffffffffffffffffffffffffffff19169060200190929190505050610c80565b6040518080602001828103825283818151815260200191508051906020019080838360005b83811015610262578082015181840152602081019050610247565b50505050905090810190601f16801561028f5780820380516001836020036101000a031916815260200191505b509250505060405180910390f35b3480156102a957600080fd5b506102d6600480360360208110156102c057600080fd5b8101908080359060200190929190505050610d88565b60405180826fffffffffffffffffffffffffffffffff19166fffffffffffffffffffffffffffffffff1916815260200191505060405180910390f35b34801561031e57600080fd5b5061035e6004803603602081101561033557600080fd5b8101908080356fffffffffffffffffffffffffffffffff19169060200190929190505050610de6565b604051808215151515815260200191505060405180910390f35b34801561038457600080fd5b506103c76004803603602081101561039b57600080fd5b81019080803573ffffffffffffffffffffffffffffffffffffffff169060200190929190505050610e68565b6040518082815260200191505060405180910390f35b3480156103e957600080fd5b506104166004803603602081101561040057600080fd5b8101908080359060200190929190505050610ec4565b6040518080602001828103825283818151815260200191508051906020019080838360005b8381101561045657808201518184015260208101905061043b565b50505050905090810190601f1680156104835780820380516001836020036101000a031916815260200191505b509250505060405180910390f35b34801561049d57600080fd5b50610574600480360360408110156104b457600080fd5b8101908080356fffffffffffffffffffffffffffffffff19169060200190929190803590602001906401000000008111156104ee57600080fd5b82018360208201111561050057600080fd5b8035906020019184600183028401116401000000008311171561052257600080fd5b91908080601f016020809104026020016040519081016040528093929190818152602001838380828437600081840152601f19601f820116905080830192505050505050509192919290505050610f92565b604051808215151515815260200191505060405180910390f35b34801561059a57600080fd5b506105da600480360360208110156105b157600080fd5b8101908080356fffffffffffffffffffffffffffffffff19169060200190929190505050611169565b6040518082815260200191505060405180910390f35b3480156105fc57600080fd5b5061063c6004803603602081101561061357600080fd5b8101908080356fffffffffffffffffffffffffffffffff191690602001909291905050506111c0565b604051808273ffffffffffffffffffffffffffffffffffffffff1673ffffffffffffffffffffffffffffffffffffffff16815260200191505060405180910390f35b34801561068a57600080fd5b506106cd600480360360208110156106a157600080fd5b81019080803573ffffffffffffffffffffffffffffffffffffffff169060200190929190505050611250565b60405180848152602001836fffffffffffffffffffffffffffffffff19166fffffffffffffffffffffffffffffffff1916815260200180602001828103825283818151815260200191508051906020019080838360005b8381101561073f578082015181840152602081019050610724565b50505050905090810190601f16801561076c5780820380516001836020036101000a031916815260200191505b5094505050505060405180910390f35b34801561078857600080fd5b506107c86004803603602081101561079f57600080fd5b8101908080356fffffffffffffffffffffffffffffffff19169060200190929190505050611427565b604051808481526020018373ffffffffffffffffffffffffffffffffffffffff1673ffffffffffffffffffffffffffffffffffffffff16815260200180602001828103825283818151815260200191508051906020019080838360005b83811015610840578082015181840152602081019050610825565b50505050905090810190601f16801561086d5780820380516001836020036101000a031916815260200191505b5094505050505060405180910390f35b34801561088957600080fd5b506108cc600480360360208110156108a057600080fd5b81019080803573ffffffffffffffffffffffffffffffffffffffff169060200190929190505050611620565b604051808215151515815260200191505060405180910390f35b3480156108f257600080fd5b506109356004803603602081101561090957600080fd5b81019080803573ffffffffffffffffffffffffffffffffffffffff1690602001909291905050506116da565b6040518080602001828103825283818151815260200191508051906020019080838360005b8381101561097557808201518184015260208101905061095a565b50505050905090810190601f1680156109a25780820380516001836020036101000a031916815260200191505b509250505060405180910390f35b3480156109bc57600080fd5b506109c56117e7565b6040518082815260200191505060405180910390f35b3480156109e757600080fd5b50610a14600480360360208110156109fe57600080fd5b81019080803590602001909291905050506117f4565b604051808273ffffffffffffffffffffffffffffffffffffffff1673ffffffffffffffffffffffffffffffffffffffff16815260200191505060405180910390f35b348015610a6257600080fd5b50610aa560048036036020811015610a7957600080fd5b81019080803573ffffffffffffffffffffffffffffffffffffffff16906020019092919050505061184a565b60405180826fffffffffffffffffffffffffffffffff19166fffffffffffffffffffffffffffffffff1916815260200191505060405180910390f35b348015610aed57600080fd5b50610b1a60048036036020811015610b0457600080fd5b81019080803590602001909291905050506118e7565b604051808473ffffffffffffffffffffffffffffffffffffffff1673ffffffffffffffffffffffffffffffffffffffff168152602001836fffffffffffffffffffffffffffffffff19166fffffffffffffffffffffffffffffffff1916815260200180602001828103825283818151815260200191508051906020019080838360005b83811015610bb8578082015181840152602081019050610b9d565b50505050905090810190601f168015610be55780820380516001836020036101000a031916815260200191505b5094505050505060405180910390f35b6000610c0033611620565b1515610c0b57600080fd5b8160046000803373ffffffffffffffffffffffffffffffffffffffff1673ffffffffffffffffffffffffffffffffffffffff16815260200190815260200160002054815481101515610c5957fe5b906000526020600020019080519060200190610c76929190611a3d565b5060019050919050565b6060610c8b82610de6565b1515610c9657600080fd5b600460016000846fffffffffffffffffffffffffffffffff19166fffffffffffffffffffffffffffffffff1916815260200190815260200160002054815481101515610cde57fe5b906000526020600020018054600181600116156101000203166002900480601f016020809104026020016040519081016040528092919081815260200182805460018160011615610100020316600290048015610d7c5780601f10610d5157610100808354040283529160200191610d7c565b820191906000526020600020905b815481529060010190602001808311610d5f57829003601f168201915b50505050509050919050565b600060028054905082101515610d9d57600080fd5b600382815481101515610dac57fe5b90600052602060002090600291828204019190066010029054906101000a9004700100000000000000000000000000000000029050919050565b60008060016000846fffffffffffffffffffffffffffffffff19166fffffffffffffffffffffffffffffffff19168152602001908152602001600020541180610e6157507f73656c6600000000000000000000000000000000000000000000000000000000826fffffffffffffffffffffffffffffffff1916145b9050919050565b6000610e7382611620565b1515610e7e57600080fd5b6000808373ffffffffffffffffffffffffffffffffffffffff1673ffffffffffffffffffffffffffffffffffffffff168152602001908152602001600020549050919050565b606060028054905082101515610ed957600080fd5b600482815481101515610ee857fe5b906000526020600020018054600181600116156101000203166002900480601f016020809104026020016040519081016040528092919081815260200182805460018160011615610100020316600290048015610f865780601f10610f5b57610100808354040283529160200191610f86565b820191906000526020600020905b815481529060010190602001808311610f6957829003601f168201915b50505050509050919050565b6000610f9d33611620565b151515610fa957600080fd5b610fb283610de6565b151515610fbe57600080fd5b60023390806001815401808255809150509060018203906000526020600020016000909192909190916101000a81548173ffffffffffffffffffffffffffffffffffffffff021916908373ffffffffffffffffffffffffffffffffffffffff16021790555050600383908060018154018082558091505090600182039060005260206000209060029182820401919006601002909192909190916101000a8154816fffffffffffffffffffffffffffffffff0219169083700100000000000000000000000000000000900402179055505060048290806001815401808255809150509060018203906000526020600020016000909192909190915090805190602001906110cc929190611a3d565b50506001600280549050036000803373ffffffffffffffffffffffffffffffffffffffff1673ffffffffffffffffffffffffffffffffffffffff1681526020019081526020016000208190555060016002805490500360016000856fffffffffffffffffffffffffffffffff19166fffffffffffffffffffffffffffffffff19168152602001908152602001600020819055506001905092915050565b600061117482610de6565b151561117f57600080fd5b60016000836fffffffffffffffffffffffffffffffff19166fffffffffffffffffffffffffffffffff19168152602001908152602001600020549050919050565b60006111cb82610de6565b15156111d657600080fd5b600260016000846fffffffffffffffffffffffffffffffff19166fffffffffffffffffffffffffffffffff191681526020019081526020016000205481548110151561121e57fe5b9060005260206000200160009054906101000a900473ffffffffffffffffffffffffffffffffffffffff169050919050565b60008060606002805490508310151561126857600080fd5b6000808573ffffffffffffffffffffffffffffffffffffffff1673ffffffffffffffffffffffffffffffffffffffff1681526020019081526020016000205460036000808773ffffffffffffffffffffffffffffffffffffffff1673ffffffffffffffffffffffffffffffffffffffff168152602001908152602001600020548154811015156112f457fe5b90600052602060002090600291828204019190066010029054906101000a90047001000000000000000000000000000000000260046000808873ffffffffffffffffffffffffffffffffffffffff1673ffffffffffffffffffffffffffffffffffffffff1681526020019081526020016000205481548110151561137457fe5b90600052602060002001808054600181600116156101000203166002900480601f0160208091040260200160405190810160405280929190818152602001828054600181600116156101000203166002900480156114135780601f106113e857610100808354040283529160200191611413565b820191906000526020600020905b8154815290600101906020018083116113f657829003601f168201915b505050505090509250925092509193909250565b600080606060028054905060016000866fffffffffffffffffffffffffffffffff19166fffffffffffffffffffffffffffffffff191681526020019081526020016000205410151561147857600080fd5b60016000856fffffffffffffffffffffffffffffffff19166fffffffffffffffffffffffffffffffff1916815260200190815260200160002054600260016000876fffffffffffffffffffffffffffffffff19166fffffffffffffffffffffffffffffffff19168152602001908152602001600020548154811015156114fa57fe5b9060005260206000200160009054906101000a900473ffffffffffffffffffffffffffffffffffffffff16600460016000886fffffffffffffffffffffffffffffffff19166fffffffffffffffffffffffffffffffff191681526020019081526020016000205481548110151561156d57fe5b90600052602060002001808054600181600116156101000203166002900480601f01602080910402602001604051908101604052809291908181526020018280546001816001161561010002031660029004801561160c5780601f106115e15761010080835404028352916020019161160c565b820191906000526020600020905b8154815290600101906020018083116115ef57829003601f168201915b505050505090509250925092509193909250565b6000806000808473ffffffffffffffffffffffffffffffffffffffff1673ffffffffffffffffffffffffffffffffffffffff1681526020019081526020016000205411806116d357506002600081548110151561167957fe5b9060005260206000200160009054906101000a900473ffffffffffffffffffffffffffffffffffffffff1673ffffffffffffffffffffffffffffffffffffffff168273ffffffffffffffffffffffffffffffffffffffff16145b9050919050565b60606116e582611620565b15156116f057600080fd5b60046000808473ffffffffffffffffffffffffffffffffffffffff1673ffffffffffffffffffffffffffffffffffffffff1681526020019081526020016000205481548110151561173d57fe5b906000526020600020018054600181600116156101000203166002900480601f0160208091040260200160405190810160405280929190818152602001828054600181600116156101000203166002900480156117db5780601f106117b0576101008083540402835291602001916117db565b820191906000526020600020905b8154815290600101906020018083116117be57829003601f168201915b50505050509050919050565b6000600280549050905090565b60006002805490508210151561180957600080fd5b60028281548110151561181857fe5b9060005260206000200160009054906101000a900473ffffffffffffffffffffffffffffffffffffffff169050919050565b600061185582611620565b151561186057600080fd5b60036000808473ffffffffffffffffffffffffffffffffffffffff1673ffffffffffffffffffffffffffffffffffffffff168152602001908152602001600020548154811015156118ad57fe5b90600052602060002090600291828204019190066010029054906101000a9004700100000000000000000000000000000000029050919050565b6000806060600280549050841015156118ff57600080fd5b60028481548110151561190e57fe5b9060005260206000200160009054906101000a900473ffffffffffffffffffffffffffffffffffffffff1660038581548110151561194857fe5b90600052602060002090600291828204019190066010029054906101000a90047001000000000000000000000000000000000260048681548110151561198a57fe5b90600052602060002001808054600181600116156101000203166002900480601f016020809104026020016040519081016040528092919081815260200182805460018160011615610100020316600290048015611a295780601f106119fe57610100808354040283529160200191611a29565b820191906000526020600020905b815481529060010190602001808311611a0c57829003601f168201915b505050505090509250925092509193909250565b828054600181600116156101000203166002900490600052602060002090601f016020900481019282601f10611a7e57805160ff1916838001178555611aac565b82800160010185558215611aac579182015b82811115611aab578251825591602001919060010190611a90565b5b509050611ab99190611abd565b5090565b611adf91905b80821115611adb576000816000905550600101611ac3565b5090565b9056fea165627a7a723058205cdc45cf86052bfca0c9c19bcf87b86fb0372c0486810142aa65e7c3ae14f0200029",
  "source": "pragma solidity >=0.4.21 <0.6.0;\r\ncontract User {\r\n    \r\n  mapping(address => uint) private addressToIndex;\r\n  mapping(bytes16 => uint) private usernameToIndex;\r\n  address[] private addresses;\r\n  bytes16[] private usernames;\r\n  bytes[] private ipfsHashes;\r\nconstructor() public {\r\n    // mappings are virtually initialized to zero values so we need to \"waste\" the first element of the arrays\r\n    // instead of wasting it we use it to create a user for the contract itself\r\n    addresses.push(msg.sender);\r\n    usernames.push('self');\r\n    ipfsHashes.push('not-available');\r\n}\r\nfunction hasUser(address userAddress) public view returns(bool hasIndeed) \r\n  {\r\n    return (addressToIndex[userAddress] > 0 || userAddress == addresses[0]);\r\n  }\r\nfunction usernameTaken(bytes16 username) public view returns(bool takenIndeed) \r\n  {\r\n    return (usernameToIndex[username] > 0 || username == 'self');\r\n  }\r\n  \r\n  function createUser(bytes16 username, bytes memory ipfsHash) public returns(bool success)\r\n  {\r\n    require(!hasUser(msg.sender));\r\n    require(!usernameTaken(username));\r\naddresses.push(msg.sender);\r\n    usernames.push(username);\r\n    ipfsHashes.push(ipfsHash);\r\naddressToIndex[msg.sender] = addresses.length - 1;\r\n    usernameToIndex[username] = addresses.length - 1;\r\n    \r\n    return true;\r\n  }\r\nfunction updateUser(bytes memory ipfsHash) public returns(bool success)\r\n  {\r\n    require(hasUser(msg.sender));\r\n    \r\n    ipfsHashes[addressToIndex[msg.sender]] = ipfsHash;\r\n    return true;\r\n  }  \r\n \r\n  function getUserCount() public view returns(uint count)\r\n  {\r\n    return addresses.length;\r\n  }\r\n// get by index\r\n  function getUserByIndex(uint index) public view returns(address userAddress, bytes16 username, bytes memory ipfsHash) {\r\n    require(index < addresses.length);\r\nreturn(addresses[index], usernames[index], ipfsHashes[index]);\r\n  }\r\nfunction getAddressByIndex(uint index) public view returns(address userAddress)\r\n  {\r\n    require(index < addresses.length);\r\nreturn addresses[index];\r\n  }\r\nfunction getUsernameByIndex(uint index) public view returns(bytes16 username)\r\n  {\r\n    require(index < addresses.length);\r\nreturn usernames[index];\r\n  }\r\nfunction getIpfsHashByIndex(uint index) public view returns(bytes memory ipfsHash)\r\n  {\r\n    require(index < addresses.length);\r\nreturn ipfsHashes[index];\r\n  }\r\n// get by address\r\n  function getUserByAddress(address userAddress) public view returns(uint index, bytes16 username, bytes memory ipfsHash) {\r\n    require(index < addresses.length);\r\nreturn(addressToIndex[userAddress], usernames[addressToIndex[userAddress]], ipfsHashes[addressToIndex[userAddress]]);\r\n  }\r\nfunction getIndexByAddress(address userAddress) public view returns(uint index)\r\n  {\r\n    require(hasUser(userAddress));\r\nreturn addressToIndex[userAddress];\r\n  }\r\nfunction getUsernameByAddress(address userAddress) public view returns(bytes16 username)\r\n  {\r\n    require(hasUser(userAddress));\r\nreturn usernames[addressToIndex[userAddress]];\r\n  }\r\nfunction getIpfsHashByAddress(address userAddress) public view returns(bytes memory ipfsHash)\r\n  {\r\n    require(hasUser(userAddress));\r\nreturn ipfsHashes[addressToIndex[userAddress]];\r\n  }\r\n// get by username\r\n  function getUserByUsername(bytes16 username) public view returns(uint index, address userAddress, bytes memory ipfsHash) {\r\n    require(usernameToIndex[username] < addresses.length);\r\nreturn(usernameToIndex[username], addresses[usernameToIndex[username]], ipfsHashes[usernameToIndex[username]]);\r\n  }\r\nfunction getIndexByUsername(bytes16 username) public view returns(uint index)\r\n  {\r\n    require(usernameTaken(username));\r\nreturn usernameToIndex[username];\r\n  }\r\nfunction getAddressByUsername(bytes16 username) public view returns(address userAddress)\r\n  {\r\n    require(usernameTaken(username));\r\nreturn addresses[usernameToIndex[username]];\r\n  }\r\nfunction getIpfsHashByUsername(bytes16 username) public view returns(bytes memory ipfsHash)\r\n  {\r\n    require(usernameTaken(username));\r\nreturn ipfsHashes[usernameToIndex[username]];\r\n  }\r\n}",
  "sourcePath": "D:/Users/Patria Lim/another_app/src/contracts/User.sol",
  "compiler": {
    "name": "solc",
    "version": "0.5.0+commit.1d4f565a.Emscripten.clang"
  },
  "schemaVersion": "3.0.1",
  "updatedAt": "2022-04-29T20:14:04.571Z",
  "devdoc": {
    "methods": {}
  },
  "userdoc": {
    "methods": {}
  }
}